:020000040000fa
:080000000002040000000000f2
:020000040000fa
:04000800fa020000f8
:020000040000fa
:04000c00fa020000f4
:020000040000fa
:04001000fa020000f0
:020000040000fa
:04001400fa020000ec
:020000040000fa
:04001800fa020000e8
:020000040000fa
:04001c00fa020000e4
:020000040000fa
:04002000fa020000e0
:020000040000fa
:04002400fa020000dc
:020000040000fa
:04002800fa020000d8
:020000040000fa
:04002c00fa020000d4
:020000040000fa
:04003000fa020000d0
:020000040000fa
:04003400fa020000cc
:020000040000fa
:04003800fa020000c8
:020000040000fa
:04003c00fa020000c4
:020000040000fa
:04004000fa020000c0
:020000040000fa
:04004400fa020000bc
:020000040000fa
:04004800fa020000b8
:020000040000fa
:04004c00fa020000b4
:020000040000fa
:04005000fa020000b0
:020000040000fa
:04005400fa020000ac
:020000040000fa
:04005800fa020000a8
:020000040000fa
:04005c00fa020000a4
:020000040000fa
:04006000fa020000a0
:020000040000fa
:04006400fa0200009c
:020000040000fa
:04006800fa02000098
:020000040000fa
:04006c00fa02000094
:020000040000fa
:04007000fa02000090
:020000040000fa
:04007400fa0200008c
:020000040000fa
:04007800fa02000088
:020000040000fa
:04007c00fa02000084
:020000040000fa
:04008000fa02000080
:020000040000fa
:04008400fa0200007c
:020000040000fa
:04008800fa02000078
:020000040000fa
:04008c00fa02000074
:020000040000fa
:04009000fa02000070
:020000040000fa
:04009400fa0200006c
:020000040000fa
:04009800fa02000068
:020000040000fa
:04009c00fa02000064
:020000040000fa
:0400a000fa02000060
:020000040000fa
:0400a400fa0200005c
:020000040000fa
:0400a800fa02000058
:020000040000fa
:0400ac00fa02000054
:020000040000fa
:0400b000fa02000050
:020000040000fa
:0400b400fa0200004c
:020000040000fa
:0400b800fa02000048
:020000040000fa
:0400bc00fa02000044
:020000040000fa
:0400c000fa02000040
:020000040000fa
:0400c400fa0200003c
:020000040000fa
:0400c800fa02000038
:020000040000fa
:0400cc00fa02000034
:020000040000fa
:0400d000fa02000030
:020000040000fa
:0400d400fa0200002c
:020000040000fa
:0400d800fa02000028
:020000040000fa
:0400dc00fa02000024
:020000040000fa
:0400e000fa02000020
:020000040000fa
:0400e400fa0200001c
:020000040000fa
:0400e800fa02000018
:020000040000fa
:0400ec00fa02000014
:020000040000fa
:0400f000fa02000010
:020000040000fa
:0400f400fa0200000c
:020000040000fa
:0400f800fa02000008
:020000040000fa
:0400fc00fa02000004
:020000040000fa
:04010000fa020000ff
:020000040000fa
:04010400fa020000fb
:020000040000fa
:04010800fa020000f7
:020000040000fa
:04010c00fa020000f3
:020000040000fa
:04011000fa020000ef
:020000040000fa
:04011400fa020000eb
:020000040000fa
:04011800fa020000e7
:020000040000fa
:04011c00fa020000e3
:020000040000fa
:04012000fa020000df
:020000040000fa
:04012400fa020000db
:020000040000fa
:04012800fa020000d7
:020000040000fa
:04012c00fa020000d3
:020000040000fa
:04013000fa020000cf
:020000040000fa
:04013400fa020000cb
:020000040000fa
:04013800fa020000c7
:020000040000fa
:04013c00fa020000c3
:020000040000fa
:04014000fa020000bf
:020000040000fa
:04014400fa020000bb
:020000040000fa
:04014800fa020000b7
:020000040000fa
:04014c00fa020000b3
:020000040000fa
:04015000fa020000af
:020000040000fa
:04015400fa020000ab
:020000040000fa
:04015800fa020000a7
:020000040000fa
:04015c00fa020000a3
:020000040000fa
:04016000fa0200009f
:020000040000fa
:04016400fa0200009b
:020000040000fa
:04016800fa02000097
:020000040000fa
:04016c00fa02000093
:020000040000fa
:04017000fa0200008f
:020000040000fa
:04017400fa0200008b
:020000040000fa
:04017800fa02000087
:020000040000fa
:04017c00fa02000083
:020000040000fa
:04018000fa0200007f
:020000040000fa
:04018400fa0200007b
:020000040000fa
:04018800fa02000077
:020000040000fa
:04018c00fa02000073
:020000040000fa
:04019000fa0200006f
:020000040000fa
:04019400fa0200006b
:020000040000fa
:04019800fa02000067
:020000040000fa
:04019c00fa02000063
:020000040000fa
:0401a000fa0200005f
:020000040000fa
:0401a400fa0200005b
:020000040000fa
:0401a800fa02000057
:020000040000fa
:0401ac00fa02000053
:020000040000fa
:0401b000fa0200004f
:020000040000fa
:0401b400fa0200004b
:020000040000fa
:0401b800fa02000047
:020000040000fa
:0401bc00fa02000043
:020000040000fa
:0401c000fa0200003f
:020000040000fa
:0401c400fa0200003b
:020000040000fa
:0401c800fa02000037
:020000040000fa
:0401cc00fa02000033
:020000040000fa
:0401d000fa0200002f
:020000040000fa
:0401d400fa0200002b
:020000040000fa
:0401d800fa02000027
:020000040000fa
:0401dc00fa02000023
:020000040000fa
:0401e000fa0200001f
:020000040000fa
:0401e400fa0200001b
:020000040000fa
:0401e800fa02000017
:020000040000fa
:0401ec00fa02000013
:020000040000fa
:0401f000fa0200000f
:020000040000fa
:0401f400fa0200000b
:020000040000fa
:0401f800fa02000007
:020000040000fa
:0401fc00fa02000003
:020000040000fa
:04020000fa020000fe
:020000040000fa
:04020400fa020000fa
:020000040000fa
:04020800fa020000f6
:020000040000fa
:04020c00fa020000f2
:020000040000fa
:04021000fa020000ee
:020000040000fa
:04021400fa020000ea
:020000040000fa
:04021800fa020000e6
:020000040000fa
:04021c00fa020000e2
:020000040000fa
:04022000fa020000de
:020000040000fa
:04022400fa020000da
:020000040000fa
:04022800fa020000d6
:020000040000fa
:04022c00fa020000d2
:020000040000fa
:04023000fa020000ce
:020000040000fa
:04023400fa020000ca
:020000040000fa
:04023800fa020000c6
:020000040000fa
:04023c00fa020000c2
:020000040000fa
:04024000fa020000be
:020000040000fa
:04024400fa020000ba
:020000040000fa
:04024800fa020000b6
:020000040000fa
:04024c00fa020000b2
:020000040000fa
:04025000fa020000ae
:020000040000fa
:04025400fa020000aa
:020000040000fa
:04025800fa020000a6
:020000040000fa
:04025c00fa020000a2
:020000040000fa
:04026000fa0200009e
:020000040000fa
:04026400fa0200009a
:020000040000fa
:04026800fa02000096
:020000040000fa
:04026c00fa02000092
:020000040000fa
:04027000fa0200008e
:020000040000fa
:04027400fa0200008a
:020000040000fa
:04027800fa02000086
:020000040000fa
:04027c00fa02000082
:020000040000fa
:04028000fa0200007e
:020000040000fa
:100400000f0021000eff21000e01880000000000f7
:10041000000020000000e000020032000001200087
:100420002002880014000700740007000000e000ac
:1004300003003a0000002000010020000200370005
:100440000000200001002000810f70000100320038
:100450000f000700000020000000e0000200320052
:100460000000020000000000720602000000000010
:100470000040da000000fe00200020000000e00044
:1004800002003200100020009001880000000600e9
:10049000a1028800800478000000eb001f003700f4
:1004a000e284440054a0b4009905ba00e2844400f8
:1004b00054a0b4009906ba00e284440054a0b400e9
:1004c0000006eb00476fde00fd07b200ae018800ba
:1004d000636ce10003003a000ad801000000eb0061
:1004e0000e003700606ce10008003a00004deb00a0
:1004f0000a05e800020039003420ec000af0a000f0
:100500008b05e900f9ff3e00040037006168e10057
:10051000010032000086eb000b00070019c7ba008b
:100520000e04e0001905ba0003003a000a00e000da
:10053000dbff3a0000000600fe07b200ae028800b2
:100540008a047800f5ff37000cd0a300e20f4d00bd
:100550001c00390089027800354dba000a05e80010
:10056000020039003420ec000af0a0008b05e900fd
:100570000f003200254dba000a05e80002003900dc
:100580003420ec000af0a0008b05e90008003200de
:100590000c00e0000600320015cdba000a05e800a4
:1005a000020039003420ec000af0a0008b05e900bd
:1005b0008984e80054a0b4000b00e000e2ff3a0098
:1005c000000006009902ba00055d78008b05e9007d
:1005d000f7ff3200c82ade00055d78008b05e900d0
:1005e000f3ff32000c00e000f1ff320019ddba0029
:1005f000eeff37000040da000000fe0000000500ba
:1006000003f0a200889fbe008a9fbe008c1f780066
:10061000c3000700ca0033006450e1004f003200fd
:100620006420e1005200320003826c0007003b00ae
:100630000905d0000306d000820f54000c065d00af
:1006400002003900020032008901780003067800b8
:100650008582550004003d000003fd008103fd007c
:100660008502ea008b854200840f720002003b0085
:1006700060001000e08018006011b8000005eb0079
:100680007a28e1000a00390006007800c75ddd0025
:10069000f707b200878075002d0037008281710056
:1006a0000a017800610560008180d1000080d300dc
:1006b0008502e900f9ff3b000604400087844800fa
:1006c00002003b0060041400e0841c000988a300c1
:1006d000070032008a81710082817100610164002b
:1006e0008904d1000884d3008b05e8001700370087
:1006f0000978a30013003a000b00e0001300340057
:100700008b05e9000804440089844c000a44740005
:100710000978a3000d003a000b00e0000700340048
:100720008b05e9000804440089844c0001003a006c
:100730000b0020000978a300f7ff32000001eb0056
:1007400002003700828171000a0178004e00070024
:100750000cf0a70001f0a000820037006420e10047
:1007600002003a00838f6c00820033000801be0053
:100770000200be007b003700889fbe008a9fbe003b
:100780008c1f7800660007006d00330003866c0044
:100790006450e1002e0032006420e100330032009a
:1007a0006150e1002f0032006120e1003100320091
:1007b00085855500eb07b0000900200008042000e3
:1007c000050037000804440089844c000a00310009
:1007d0000603430087834b000001530081815b00c7
:1007e000f8ff33000203be000800a0000804440024
:1007f00089844c00f6ff3900c639dd00830173009f
:1008000001003200130020008904d1000884d300c5
:100810000998a300050032000800a7000300a0000b
:100820008904d1000884d3008b05e8008904d10035
:100830000884d3000001eb000281d20012000700ff
:1008400001f0a1000cf0a70001f0a0004500370066
:100850006420e100470032000801be000200be0033
:10086000f7ff37006120e100420032006000b8006d
:10087000f3ff37000000200001f82700f0ff3700e9
:100880006011b800720037008100200061805500bf
:100890000b003d000b00200061fe2f000100e10075
:1008a0001d00340082817100610164008904d1005f
:1008b0000884d3000000e800faff3a00710020002d
:1008c0006100640003007000020060000900320053
:1008d00061044400e0844c000988a5000500320052
:1008e0008b05e8006808e10002003a008904d100a5
:1008f0000884d300f20f20000258e10005003d00fb
:10090000c75ddd00f907b200898075000800780036
:10091000000006000bf827008b007800000005009f
:100920000004be00790007000003be000405be00fd
:100930000200be0075000700844f7500000006002d
:100940000200be006450e100050036006420e100b2
:10095000020036000968a30001003a000800be004a
:100960000160a0004f0678004f05be004f04be0096
:1009700000000600f0ff2f00f1ff2700f9ff37000d
:10098000889fbe008a9fbe008c1f7800e4ff07008e
:10099000ebff330003866c006450e100240032005a
:1009a0006420e100270032006150e10022003200a3
:1009b0006120e100210032008b854200eb07b1008d
:1009c0000134b800003ab8000804420089844a00a3
:1009d000013ab8000030b8008880400009014a00a0
:1009e00004003300000040008180480002014900fb
:1009f0008b05e900c909dd008301700001003200a8
:100a000013002000c814de004814dd004709de0092
:100a10001200b200c808de00088470009aff0700c8
:100a200001f0a1000cf0a70001f0a000cdff3700fd
:100a30006120e100cfff32000801be000200be00cd
:100a4000f7ff37006150e100fcff3a00c9ff3700b3
:100a5000889fbe008a9fbe00008270000402710061
:100a600004827100260032000004be000200be00b5
:100a70006011b8006b092000950220000182cf00b0
:100a80000a0039000541b1000082cf00070039009b
:100a90000541b1000982cf00040039000541b100d1
:100aa0000882cf00010039000541b1000542520023
:100ab000120032000a003b00828171006101640073
:100ac0008100d1000080d3008984d3000884d30042
:100ad0008b05e8000442e800f7ff3a000700370002
:100ae0000804440089844c000000480081804800cc
:100af0008b05e9000442e900f9ff3a0062ff0700b4
:100b00004f05be004f04be0000000600c70ade000d
:100b1000f107b200f50fb20008003200e1cf420049
:100b2000020032000170a00024000500810f700057
:100b3000010032000408050044000500810f700028
:100b400002003a00140005008502e90000004000a0
:100b500081c04800fcff3b000170a000240005009c
:100b6000020037000204e0000b003200810178002f
:100b70000002780030417800b14f5100f9ff320097
:100b80001000200014427800934f520003003100ff
:100b90000080eb00000006000000eb0000000600f3
:020000040000fa
:100ba0000000fa000040eb000f010700b60007004c
:100bb0009c000700cc0007000401070010c0b30030
:100bc000090107000080fa00000006000600fa0094
:100bd000000f780011079800220798003a23ef00d1
:100be0003c23ef003e23ef002023ef002223ef0001
:100bf0002423ef003be3a9001e00780000407800aa
:100c0000614060000080fb00610060004c00dd007e
:100c1000d2198000f1ff2e008100610001007000f8
:100c2000d01988003b63a9003b23a9003b03a9001e
:100c30001e00900000407800634060006340600048
:100c4000634060000080fb00630060004800dd003e
:100c5000f2198000f1cf2f008100610001007000c7
:100c6000f0198800000ea8000e0ea800411980009f
:100c700000fe2f00008060004019880021e3a800da
:100c80002143a90001198000f0cf2f0000806000ef
:100c9000001988003be3a8003d03a8002023a8001a
:100ca0000045230031002000e20007002023a900b6
:100cb0000000000000198000610060000000e000fa
:100cc000fcff32003d03a90001a8a9003be3a900f5
:100cd000000ea9000e0ea900001880000080fa0086
:100ce000000006001600fa00adff07006000b80023
:100cf00030079800410798006000b800500798003e
:100d0000610798006000b800008fbe006000b80066
:100d100070079800010f98006000b800100f98004d
:100d2000210f98000000eb00200798000000eb0066
:100d300020079800110037000001eb00210020007f
:100d40000000eb00a1ff07008000eb00ccfe0700d5
:100d5000100f9800210f98001e099000ae09900016
:100d60001e0078009e00900026fe0700008fbe0047
:100d70002e0090000000e800200798002e00900050
:100d8000e90f5000ecff360002002000031224009f
:100d90001e0078009e00900077fe07003007980044
:100da0004107980002002c00f34724003e00900009
:100db000ce00900070fe070032332300330524007c
:100dc000effe070050079800610798000290270087
:100dd000138d24005e009000ee00900066fe070078
:100de00070079800010f9800907080000080ea0062
:100df0004f00de00004078000080fb004f00dd0067
:100e000092708000f1ff27008100610001007000f6
:100e10009070880000ec2000612120008500070010
:100e2000f1ff37000000fa0040a7a900113a800046
:100e3000f08f2f00008060000080a000103a880032
:100e400042e7a90042c7a9004207a800000000002d
:100e5000113a80000000270080806000000021001f
:100e6000808f5000faff3a004fe7a8004f87a90093
:100e7000713a8000f00f2f0000806000703a880007
:100e80000080fa00000006000000fa0045e7a90013
:100e90004587a90045a7a90045c7a9004567a9003e
:100ea0004507a9004527a9004547a90044c7a9004f
:100eb00044e7a9004407a9004427a9004447a90022
:100ec0004467a9004487a900313a800000e02f0060
:100ed00080806000a004200001007000303a88008b
:100ee0000080fa00000006000000fa00002eef006b
:100ef0000e2eef00022eef00102eef001e2eef0040
:100f0000122eef000080fa00000006000400fa0034
:100f1000000f7800110798009e0090001e007800d6
:100f20000fff070000f0a7000000ea000000e90042
:100f30004f00de00004078000080fa00000006004c
:100f40000800fa00300798000000eb00000f78005e
:100f50000000eb00200798000000eb00100798004d
:100f6000130037003e009000104078000000fb00a6
:100f70000003b100200798001e0090000000e00070
:100f8000030032001e007800ea00b900000f78006c
:100f90002e0090001e0f40001e0090000000e80090
:100fa000100798003e0090000000e800300798000d
:100fb0003e009000104078000004e000e9ff3a0095
:100fc0001e0078000080fa00000006000000fa0011
:100fd000c028ef00c428ef00c628ef00c1e8a90030
:100fe0000080fa00000006000200fa00004f7800be
:100ff0001e4078000004e00007003200110280006b
:10100000f0f12f0000806000100288004460a90009
:10101000c3e8a8000500370011028000000e200080
:101020000100700010028800c3e8a9000080fa00e7
:0410300000000600b6
:020000040000fa
:10103400f03fb1000180b10006003500ee03090065
:1010440000000000403fb1000180b100fbff3d0003
:101054001000b000203fb0000200350000800900fd
:0810640000000000000006007e
:020000040000fa
:04afe000cfff00009f
:020000040000fa
:04afe400efff00007b
:020000040000fa
:04afe8007fff0000e7
:020000040000fa
:04afec007bff0000e7
:020000040000fa
:04aff000f9ff000065
:020000040000fa
:04aff400ffff00005b
:00000001FF
